:08180000322C0400000000007E
:08185000D61A0400000000009C
:081870004A1B04000000000007
:1018A0000C1F040000000000B22004000000000033
:0818E80048210400000000008B
:08192800581804000000000043
:08193000F62004000000000095
:10197000B81B0400000000002C1C04000000000044
:081BF8003220EF00C3012000C0
:101C0000830150000500310083E120000080410085
:101C10001040BA000160EF000000060080E12000E3
:101C200083814100808141001380BA0000000600DA
:101C3000582020003A202C004B702000203D4B0003
:101C400020256900642E200025643D00202C200002
:101C5000204B2500642064003D202E0025642500D3
:101C60002E256400640A00003220EF00C30120002A
:101C7000830150000500310003E520000080410091
:101C80001040BA000160EF000000060000E52000EF
:101C900083814100808141001380BA00000006006A
:101CA000592020003A202C004B702000203D4B0092
:101CB00020256900642E200025643D00202C200092
:101CC000204B2500642064003D202E002564250063
:101CD0002E256400640A00003220EF0083E7200014
:101CE000008041001040BA000160EF0000000600D3
:101CF000582000003A200000256400002C25000038
:101D0000642C0000256400002C250000642C0000D9
:101D1000256400000A000000851F7800C50020002F
:101D200003000900B51F78000002780081027800E6
:101D300002037800830378000000EB008000EB00D2
:101D40000001EB008001EB000800A10007F0A600F5
:101D5000050037000800A0000402EA008582EA00BE
:101D60000683EA008783EA008504720002003A00D5
:101D70008704730015003200394720000340A70094
:101D80000B0037004200A9000482D2008582D200F5
:101D90000683D2008783D2000080D2008180D200E7
:101DA0000281D2008381D2008904E900F3FF3A0066
:101DB000C44CDD004200A90009F0A1000340A100CD
:101DC00083816C000800A70003F0A000250120001B
:101DD00003000900CF127800CF027800000006004F
:101DE000881F78002801200004000900B81F78002F
:101DF0008005EB006066B800030478008704780073
:101E0000FA7F20004200A9004220A90044C4DE005D
:101E1000080465000800E000710032004200A900DB
:101E20004220A900C4CCDE00890465000900E0005E
:101E30006B0032000884440009B0A700040037009A
:101E4000F83FB1006600320065003900030037003A
:101E50001A402000854245006100310087866900F4
:101E60004200A9004220A900F300B2000340A000F4
:101E7000F700B2000740A000881F78000124B800D6
:101E8000002DB8000A0544008B854C000C80B00082
:101E90000224B8008B0544000C864C00012CB800CD
:101EA0000005EB008B0544000C864C000A80B00056
:101EB0000034B8008B0544000C864C000A80B0004A
:101EC0008005EB000324B8000C0644000A854C0092
:101ED0000B80B000022CB8000C0644000A854C00B0
:101EE0000B80B0000134B8000C0644000A854C0099
:101EF0000B80B000003CB8000C0644000A854C0082
:101F00000B80B0000C0078000006EB00032CB8003A
:101F10000A0544008B854C000C80B0000234B800E8
:101F20000A0544008B854C000C80B0000334B800D7
:101F30008B0544000C864C00013CB8000A054400A7
:101F40008B854C000C80B000023CB8008B0544002F
:101F50000C864C00033CB8000C0644008A00780054
:101F60000B0178008C017800540020004200A90089
:101F70008381D3000281D3008180D3000080D3000D
:101F80000402E900F9FF3A004F0478000804E80071
:101F900001037000010032000200370003037100EA
:101FA000080032000340A700060037004200A900E5
:101FB0000080D2008180D2000281D2008381D200D1
:101FC0000804E9004444DD0003F0A1000DF0A7007F
:101FD00003F0A0000340A10083016C000300370060
:101FE0006000B8006001B80000003700A8012000C0
:101FF000040009004F1478004F0478000000060028
:10200000881F78002801200004000900B81F78000C
:10201000878669000304780087047800FA7F20002F
:102020004200A9004220A90044C4DE000804650063
:102030000800E0006C0032004200A9004220A90024
:10204000C4CCDE00890465000900E00066003200AF
:102050000005EB000906540003003900FC3FB00006
:1020600061003100040037001B4020000B065600C1
:102070005D0039005C0032000004EB008004EB00DE
:102080000005EB008005EB00F301B2000340A00067
:10209000F701B2000740A0008C1F78006C032000FD
:1020A00004005000858058000601590087815900BE
:1020B000020033000600310006003A000400400030
:1020C00085804800060149008781490001003700EA
:1020D0000800A0000C06E9000B0032004200A90035
:1020E0000080D2008180D2000281D2008381D200A0
:1020F0004200A9000884D2008984D2000A85D20057
:102100008B85D200E6FF37004F0678000B50A70002
:1021100001003700060037004200A9008B85D3007C
:102120000A85D3008984D3000884D30003003700D4
:102130000C06E9004200A9002B0032004200AF006B
:10214000090037000080D2008180D2000281D200D5
:102150008381D20004025000858258000603590092
:1021600087835900150039000804E80013003A007D
:102170008904E80011003A000A05E8000F003A005F
:102180008B05E8000D003A000C06E800160032004E
:102190000A0037000C06E900130032000B40A700CC
:1021A000060037004200A9000884D2008984D200CA
:1021B0000A85D2008B85D200F8FF37004466DD0027
:1021C0004200A9000CF0A1000DF0A7000CF0A00047
:1021D0000B40A1008B016E000A0178008900780095
:1021E00008007800050037000000200001002000F2
:1021F000020020000300200000003700A80120009A
:10220000040009004F1478004F0478000000060015
:10221000851F7800861F780003027800030378008A
:102220004200A90044A2DE00F57F20000482620083
:1022300003003A006000B8000001EB001300370013
:102240000438B100F300B200370020004200A900BA
:102250000080D2008180D2000281D2008381D2002E
:102260008703E900F9FF3A00010078008200780056
:102270000370A1000480FD004200A9000482D30085
:1022800006F0A70004F0A00003016A004F037800E5
:10229000CF02780000000600851F7800861F7800B6
:1022A000871F7800881F78005E89BF00010020002A
:1022B00002002000030020008C0E0200000000003D
:1022C000040020000500200006002000E7FB23009A
:1022D000F00E020000000000800278000103780088
:1022E0008203780003047800851F7800861F780039
:1022F000871F7800050078008600780007017800C5
:1023000088017800F4512800B51E250086EB2100D5
:1023100097002400F00E020000000000CF037800B8
:102320004F037800CF027800800278000103780024
:102330008203780003047800851F7800861F7800E8
:10234000871F780005007800860078000701780074
:102350008801780004002000050020000600280005
:10236000670624000010020000000000CF03780080
:102370004F037800CF0278008002780001037800D4
:102380008203780003047800851F7800861F780098
:10239000871F780005007800860078000701780024
:1023A00088017800040020000500200006002000BD
:1023B000C7012400F00E020000000000CF037800E7
:1023C0004F037800CF0278000811020000000000DF
:1023D000914A8800A24A88004F047800CF03780011
:1023E0004F037800CF02780000000600851F7800B8
:1023F000861F7800871F7800881F78006089BF00DB
:102400000100200002002000030020008C0E0200CA
:10241000000000000400200005002000060020004D
:10242000E7FB2300F00E02000000000080027800AD
:10243000010378008203780003047800851F780088
:10244000861F7800871F78000500780086007800D6
:102450000701780088017800F4512800B51E250096
:1024600086EB210097002400F00E0200000000001F
:10247000CF0378004F037800CF0278008002780005
:10248000010378008203780003047800851F780038
:10249000861F7800871F7800050078008600780086
:1024A0000701780088017800040020000500200062
:1024B000060028006706240000100200000000004B
:1024C000CF0378004F037800CF02780080027800B5
:1024D000010378008203780003047800851F7800E8
:1024E000861F7800871F7800050078008600780036
:1024F0000701780088017800040020000500200012
:1025000006002000C7012400F00E020000000000B9
:10251000CF0378004F037800CF0278000811020043
:1025200000000000D14A8800E24A88004F04780089
:10253000CF0378004F037800CF0278000000060038
:10254000844F8000E32E20000418E10002003C00CC
:10255000E42E2000844F8800F209E20005003A00D2
:10256000F009F8008001F900C442A800C482A90063
:102570000E003700944F80006120E10005003A0012
:10258000F009F8008001F900C482A800C442A90043
:1025900006003700944F80006220E10003003A00FB
:1025A0008021EF00C442A900C482A90000000600F7
:1025B000644F8000E32E20000418E10002003C007C
:1025C000E42E2000644F8800744F80006120E100F9
:1025D00005003A00EC09F8008601F900C402A800E1
:1025E000C422A9000D003700EE09E20005003A0000
:1025F000EC09F8008601F900C422A800C402A90071
:1026000006003700744F80006220E10003003A00AA
:102610008621EF00C402A900C422A9000000060020
:10262000851F7800C500200003000900B51F780051
:102630008004EB00080028004300AF0083016C0019
:102640000000E00003003A00FAFF27000A8560005E
:102650004220AE00010578008A85690001037800F8
:1026600083037800030678004220A9004200A900F5
:102670000683D2000680FD00F60FB2000600E000DF
:10268000A10032004220A9004200A9008783D200A5
:102690000780FD00F70FB2000700E0009F00320046
:1026A0004220A9004200A9000638E1009C00320047
:1026B000A30033000900A1000910A0000684530004
:1026C00007037800F10FB2000170A000F30FB20011
:1026D0000370A000870220000838E10011003300D9
:1026E0004220A9004200A9008180D3000080D300CD
:1026F0000804E900FAFF3A000D00370087022000C5
:102700000838E100090033004220A9004200A90076
:102710008381D3000281D3000804E900FAFF3A0064
:102720000F00370002007800830078004300370074
:102730000BF0A600110037000940A7008C057800B7
:102740000000EA000200320081C0EA000100370008
:102750008100EA000940A7002B003700070037007E
:102760000BF0A600050037000201EA00020032006B
:1027700083C1EA00010037008301EA00F50FB200CF
:102780004220A9004200A9000200400083C0480086
:102790004200AF000930A0000900A700090037007F
:1027A0000910A700010037000B0037000BF0A7004D
:1027B000150037000930A700290037000960A00084
:1027C0001E0037000BF0A7000F0037000930A700EC
:1027D00023003700190037000920A1000BF0A700E3
:1027E000040037008A0578000930A7001C00370074
:1027F000360037000940A00001C8B2000170A700F0
:10280000CDFF37008A057800F10FB2008103700018
:102810000A0032000170A700080037004220A9001A
:102820004200A9000080D2008180D2000603E900A6
:102830004220AF0031003700F6FF37000900A70043
:102840008A0578000910A7008C0578000950A600B9
:102850001A0037000AF0A7000080A0001B00370014
:102860004200A80081C0D3000080D3004200AF0026
:102870000950A0000603E800200032000950A6001D
:10288000080037000000E80006003A008140E80038
:1028900004003A0081C0D3000080D3000603E800A2
:1028A000160032000900A7008A0578000910A70069
:1028B0008C0578004220AF00100037000960A700A7
:1028C0008A0578000970A7008C0578000101700066
:1028D000230032000170A1000680FD004220A90003
:1028E0004200A9000683D30081006B0001F0A00024
:1028F0000BF0A60001F0A100190037000000200035
:1029000001002000160037000AF0A70083016C00C8
:1029100002007800830078001100370010003700B3
:10292000F30FB2000370A000F10FB2000170A0001D
:102930000BF0A7000370A1000920A00088FF37005A
:1029400007045300F10FB2000170A000F30FB200B2
:102950000370A0000910A1000900A00067FF370064
:102960002501200003000900CF127800CF02780073
:1029700000000600851F7800861F7800871F7800FA
:102980000382680004F0A600060037004200A90098
:102990004220A90001F0A600260037004200A8004E
:1029A00024003700010278008002780003037800D9
:1029B000820378008180D2000180FD008381D200F3
:1029C0000380FD0081C051000500320004F0A60024
:1029D000180037001000200042E0B6001500370054
:1029E00084407800864178000170A1000370A10046
:1029F00081C051000500320004F0A6000D00370030
:102A00001000200042E0B6000A0037008580530025
:102A10000500320004F0A600060037001000200078
:102A200042E0B600030037004200A9000100370071
:102A300000003700CF0378004F037800CF02780002
:102A400000000600851F7800C50020000400090072
:102A5000B51F7800000278008102780083037800B7
:102A6000020378004200A9004220A9008180D20020
:102A70000180FD00F10FB2000100E0004B003200C8
:102A80004200A9004220A9008381D2000380FD00FA
:102A9000F30FB2000300E000440032000080FB00AE
:102AA00001C0410004003100F007B1003F003200D6
:102AB0003E003900020037001048B0003B003100F2
:102AC00007856A004200A9004220A900F50FB20064
:102AD0000570A0004200A900F70FB2000770A00027
:102AE0000621B800062CB80083014C00890078004C
:102AF0004200AF008100E8004200A900043CB80099
:102B000083014C0081804C00072CB80081004C00F0
:102B10000000E8000100E0004220AF0001003700A3
:102B2000030037000300E0004220AF00050037003B
:102B300001F0A700030037008381D2008180D2001A
:102B40000000E900010178004200A9000370A6001E
:102B50000900370007F02F00878161000310B000E3
:102B6000600149000200E00003003A000300E000B9
:102B700001003A000000E8000080FD004200A900CA
:102B80004220A9008080D3000AF0A70001F0A00035
:102B900002F0A1000280FD00814069000380FD0079
:102BA0000341780002007800030037000000200095
:102BB000010020000000370045012000040009004A
:102BC000CF127800CF02780000000600851F780041
:102BD000C500200003000900B51F78008001200017
:102BE000DA09B4008002780000002000DA09B4009D
:102BF000C4002000301A7800301A7800400020000D
:102C0000DA09B4000002780003002000B41978004B
:102C1000B41978004300A900000178008101780010
:102C20000600780087007800101302000000000002
:102C30000003BE0080002000DA09B4000002780022
:102C400003002000B4197800B41978004300A900EB
:102C50000001780081017800060078008700780084
:102C600010130200000000000003BE000600780000
:102C700087007800B24E8000C34E8000221502000B
:102C8000000000000003BE0000002000DA09B400CC
:102C900004012000301A7800301A780080002000EB
:102CA000DA09B4000002780003002000B4197800AB
:102CB000B41978000001780081017800000020003C
:102CC0000100240022150200000000004300A900BA
:102CD0000001780081017800080078008900780000
:102CE00010130200000000000004BE0000022000DB
:102CF000DA09B4000002780003002000B41978005B
:102D0000B41978000001780081017800080078008B
:102D10008900780022150200000000004300A8008E
:102D200000017800810178000600780087007800B3
:102D300010130200000000000003BE00800020000D
:102D4000DA09B40004012000301A7800301A780043
:102D500040022000DA09B4000002780003002000DD
:102D6000B4197800B4197800000178008101780066
:102D70000800780089007800221502000000000099
:102D80004300A90000017800810178000600780066
:102D900087007800101302000000000004002000EB
:102DA000B41A7800B41A780040012000DA09B4009F
:102DB00080027800C0012000DA09B400C4002000BD
:102DC000301A7800301A780080012000DA09B40047
:102DD0000002780003002000B4197800B4197800CC
:102DE0004300A90000017800810178000600780006
:102DF000870078001013020000000000040020008B
:102E0000B41A7800B41A7800C0012000DA09B400BE
:102E10008002780040012000DA09B400B01A78007E
:102E2000B01A780040022000DA09B400800278006D
:102E300000022000DA09B400B01A7800B01A780055
:102E400000022000DA09B40080027800649D2000AE
:102E5000B41A7800B41A7800250120000300090094
:102E6000CF127800CF027800000006000001780041
:102E700081017800014078000080FD0000F0A00092
:102E80008180D2000180FD008180FB00E4082000E9
:102E900081405200060032000000E00004003200D1
:102EA0004200A9000080D3008100E900FAFF3A0047
:102EB00003F0A600020037000000EA00000037001F
:102EC00000000600851F7800C500200003000900EF
:102ED000B51F780000F0A6000C0037000000EA00E3
:102EE0000480A00004F0A60008003700801F7800CE
:102EF000D00220002322AF00FEFF370024A2B7003B
:102F00004F0078000480A1000860ED008002EB0013
:102F1000800378008404780004F0A1000404E00039
:102F200006003A0009F0A700020037000500200063
:102F30000F003700050020000D003700E642520068
:102F40000A0039000003200009F0A600000220005A
:102F50002322AF00FEFF370024A2B7008502E9005C
:102F6000FBFF3B0055002000010037008402780081
:102F7000640020000580A7000402E80005E0A0002E
:102F800009F0A70005F0A000087122001100090057
:102F90008883D8000E18020000000000810378002A
:102FA000883E2000110009008883D8000E18020016
:102FB000000000008103780048062000110009008D
:102FC0008883D8000E1802000000000081037800FA
:102FD000A8002000110009008883D8000E18020004
:102FE000000000000980A60005003700D002200084
:102FF0002322AF00FEFF370024A2B7000980A10002
:103000000003200000C04000500188002322AF00D0
:10301000FEFF370024A2B70020003700060320007F
:103020000000E0000E003A0005E0A60016003700A0
:103030000402E9000524E100020032004200AF0072
:10304000000006000000E00005003A0005E0A600D0
:103050000D00370005F0A600060220000A00370028
:1030600005E0A1000980A6000700370000057800F0
:10307000D00220002322AF00FEFF370024A2B700B9
:103080000980A1000A007800004043002322AF001D
:10309000FEFF370024A2B700000006002501200033
:1030A00003000900CF127800CF027800000006006C
:1030B0004200F8003600F8003200F800801F780067
:1030C000200020000C000900B01F78004C11020005
:1030D00000000000F611020000000000D44B800048
:1030E0006124E10006003A00C4122000844F8800E9
:1030F00014002000944F8800A0120200000000007D
:10310000D44B80004822DE006124E10006003A0032
:10311000441F2000644F880014002000744F880072
:10312000D812020000000000544B80004822DE004C
:103130006124E10012003A007549E20006003A00FD
:103140007009F800F009F900F229EF00A01202005E
:10315000000000000A003700A44B80004822DE0077
:103160006124E10006003A007009F800F009F90056
:1031700014002000944F8800A012020000000000FC
:10318000A44B80006124E10011003A007649E2007E
:1031900006003A007209F800EC09F900EE29EF0088
:1031A000D81202000000000009003700B44B800074
:1031B0006124E10006003A007209F800EC09F90008
:1031C00014002000744F8800D81202000000000094
:1031D000C44B80006124E10005003A00F029EF00B3
:1031E00024002000944F8800A0120200000000007C
:1031F000C44B80004822DE006124E10005003A0053
:10320000EC29EF0024002000744F8800D81202003F
:1032100000000000744B80006120E10092003A0041
:103220004300A8004E89BF00814A8000924A800076
:10323000A34A8000101302000000000062A9B7003A
:10324000214B88004300A8005689BF00C14A800076
:10325000D24A8000E34A8000101302000000000000
:1032600066A9B700414B88006289BF00214B8000EE
:1032700001F0A10080027800010378000000200026
:1032800001F023000501780086017800BA140200DD
:10329000000000002E0039006209F800D609F9008C
:1032A0006409F800D809F900E48F2000D44E8800A2
:1032B000E6150200000000000000200001002000D0
:1032C00092488000A3488000BA1402000000000069
:1032D000010031000A003A001289BF00A1488000B5
:1032E000361702000000000080027800854F880039
:1032F000F229EF00A01202000000000013003700C6
:103300001289BF00A14880000200200003002000B5
:10331000BA140200000000000C0039001289BF003E
:10332000A14880003617020000000000F4FF2F00C3
:1033300000A0B90080027800854F880013002000AB
:10334000934F8800A0120200000000000500370023
:10335000F029EF0024002000944F8800A012020002
:10336000000000006689BF00414B800001F0A10011
:1033700080027800010378000000200001F02300A3
:103380000501780086017800BA14020000000000F0
:10339000300039006609F800D609F9006809F8001C
:1033A000D809F90064922000D44E8800E615020086
:1033B000000000000000200001002000D249800031
:1033C000E3498000BA14020000000000010031004F
:1033D0000A003A003A89BF00E1498000361702002E
:1033E0000000000080027800654F8800EE29EF00A1
:1033F000D812020000000000150037003A89BF0013
:10340000E14980000200200003002000BA140200FD
:10341000000000000E0039000000200001F82B0021
:10342000D2498000E349800022150200000000001C
:10343000361702000000000080027800654F880007
:1034400014002000744F8800D81202000000000011
:1034500005003700EC29EF0024002000744F88009D
:10346000D8120200000000001289BF00A1488000AD
:103470003617020000000000800278006289BF0059
:10348000214B800036170200000000000003780086
:103490004E89BF00814A80003617020000000000FC
:1034A000800378005289BF00A14A800036170200CD
:1034B00000000000000478000100200001007800F6
:1034C0000160EF006C0E0200000000008100E800C7
:1034D0002322AF00FEFF370024A2B70030002000F7
:1034E0000008E600F5FF3700050078000400200022
:1034F00062170200000000002322AF00FEFF370029
:10350000C402200024118800060078000400200076
:1035100062170200000000002322AF00FEFF370008
:10352000C402200024118800070078000400200055
:1035300062170200000000002322AF00FEFF3700E8
:10354000C402200024118800080078000400200034
:1035500062170200000000002322AF00FEFF3700C8
:10356000C4022000241188005E89BF0004002000EE
:1035700062170200000000002322AF00FEFF3700A8
:10358000A4002000241188008780A900A001200049
:103590000C0009004F1078004F0078003200F9004D
:1035A0003600F9004200F900004006004200F80031
:1035B0003600F8003200F800801F7800200020005C
:1035C0000C000900B01F7800551680000502780035
:1035D0000403B200B44E88004001F800E808F90086
:1035E000444780003347800003005200ECA8B70036
:1035F000D689BF00F0026000C42ADE00B64E80000B
:103600000602B2004530DE0000806A000080EA0059
:103610008002780061806200DEA8B700D689BF0012
:10362000F0026000C42ADE00B64E80000602B2003E
:103630004530DE000028E10006003A0014002000BA
:1036400054478800F44A800061024200F44A88002E
:10365000050037002400200054478800F44A800009
:10366000610052005EA9B700E808F800E608F9001A
:103670008420A900A00120000C0009004F10780050
:103680004F0078003200F9003600F9004200F900DE
:10369000004006004200F8003600F8003200F80052
:1036A000801F7800200020000C000900B01F780067
:1036B00055168000050278000403B200B44E88005D
:1036C0004401F800E808F9004447800033478000CF
:1036D00003005200ECA8B700D689BF00F0026000DA
:1036E000C42ADE00B64E80000602B2004530DE007D
:1036F00000806A00E0A8B700D689BF00F002600031
:10370000C42ADE00B64E80000602B2004530DE005C
:103710000028E10006003200140020005447880011
:10372000F44A800061024200F44A88000500370034
:103730002400200054478800F44A800061005200B1
:103740005EA9B700E808F800E608F90084A0A9001F
:10375000A00120000C0009004F1078004F007800F5
:103760003200F9003600F9004200F900004006007E
:103770004200F8003600F8003200F800801F7800A0
:10378000200020000C000900B01F780055168000B2
:1037900005027800040CB200B44E88004801F8001D
:1037A000F408F900A447800093478000030052000A
:1037B000F8A8B700B54E80000508B200C42ADE00A4
:1037C000B64E80000604B2004530DE0000806A007C
:1037D0000080EA008002780061806200E2A8B70001
:1037E000B54E80000508B200C72ADE00B64E800044
:1037F0000604B2004630DE000028E10006003A0070
:1038000014002000B4478800044B8000610052007F
:1038100060A9B7000500370024002000B4478800E5
:10382000044B800061024200044B8800F408F80059
:10383000F208F90088A0A900A00120000C000900EE
:103840004F1078004F0078003200F9003600F90080
:103850004200F900004006004200F8003600F8007F
:103860003200F800801F7800200020000C000900C2
:10387000B01F78005516800005027800040CB200D5
:10388000B44E88004C01F800F408F900A447800009
:103890009347800003005200F8A8B700B54E80009F
:1038A0000508B200C42ADE00B64E80000604B2004D
:1038B0004530DE0000806A00E4A8B700B54E800005
:1038C0000508B200C72ADE00B64E80000604B2002A
:1038D0004630DE000028E10006003200140020001F
:1038E000B4478800044B80006100520060A9B70013
:1038F0000500370024002000B4478800044B8000F6
:1039000061024200044B8800F408F800F208F90054
:1039100088C0A900A00120000C0009004F10780009
:103920004F0078003200F9003600F9004200F9003B
:1039300000400600851F7800861F780020002000C8
:10394000E609B4009002780000002000E609B40007
:1039500000027800140078000028E10004003A001A
:10396000554F800010C0B300804A78002300370014
:1039700020002000E609B40080027800950AE800E3
:1039800080002000E609B40090027800400020008A
:10399000E609B400100378004130DD000503400063
:1039A000444F80000403980040002000E609B40062
:1039B00080027800950AE80040002000E609B40083
:1039C0009002780000002000E609B40000027800B0
:1039D000140078000028E10006003A0040002000B2
:1039E000E609B40080027800804AEB0000C0B30012
:1039F00090429800554F8000804AEB004F037800BA
:103A0000CF02780000000600851F7800000020002B
:103A10001A0AB40080027800E45080008402980002
:103A2000CF02780000000600851F78000608F80025
:103A3000200AF90020002000200AB400900278003B
:103A4000F45080000520E100050032002000200035
:103A5000200AB400901F7800200AF900F5FF370013
:103A600020002000200AB4008002780020002000FE
:103A70001E0AB400900A78001E2AEF00CF027800D8
:103A800000000600851F7800861F78000608F800F1
:103A9000020AF900020AE2003600320000002000AB
:103AA000020AB4009002780005F0A7002C0037004D
:103AB00000002000020AB400901F7800060AF900F6
:103AC00020002000020AB400901F7800040AF900C8
:103AD00000002000040AB4009002780005F0A7005E
:103AE0001A003700028ABF00060AB40000037800FB
:103AF0006403430006007800040AE30013003A0060
:103B000000002000040AB400901F7800080AF900A1
:103B1000445080006402420004007800062AB40089
:103B2000040AF8001E0AF900141D0200000000003B
:103B3000020AF8001A0AF900060AF8001C0AF9003D
:103B4000041D0200000000000400370020002000D7
:103B5000020AB400901F7800020AF900040037003E
:103B600020002000020AB400901F7800020AF90029
:103B7000C8FF37004F037800CF027800000006002E
:103B8000851F7800F409E20002003A001B003700AC
:103B900018003700A44F800064005200F6A9B70057
:103BA00000002000F609B4009002780005F0A6009D
:103BB0000E00370000002000F609B40090027800E3
:103BC0000400280004805200F8A9B700F609F800A4
:103BD0001A0AF900F809F8001C0AF900041D02008D
:103BE00000000000F429EF0002003700F429EF0084
:103BF00002003700421D020000000000CF027800E2
:103C000000000600851F7800140AF800160AF90063
:103C100000002000160AB400800278009450800052
:103C20008402980020002000160AB4008002780068
:103C3000804AEB0000C0B30090429800160AF800DA
:103C40000000F900CF02780000000600851F780010
:103C500020002000080AB400900278000500E0006F
:103C600007003A00200020000A0AB4008002780011
:103C7000804AEB0000C0B300904298000600370075
:103C8000200020000A0AB4008002780020002000F2
:103C9000080AB400900A780020002000080AB40046
:103CA000800278005450800084029800CF0278008F
:103CB00000000600851F7800861F7800F689BF0087
:103CC000610060000000E00001003200F629EC0015
:103CD0000608F800F809F900F809E200410032008E
:103CE00000002000F809B4009002780005F0A70059
:103CF0003700370000002000F809B40010037800F6
:103D0000B44F80000620E10031003E00000020009A
:103D1000F809B400901F7800FC09F900B44F800046
:103D20006402420004007800E44F80000020E100BB
:103D30001E003600E44F8000B34F80008302520023
:103D4000E4825200C44F8000640242000403780001
:103D500006007800F609B40000037800955088004A
:103D6000A6508800021E020000000000FAA9B70059
:103D7000F809F800080AF900FA09F8000A0AF90037
:103D8000261E02000000000004002800B34F80003F
:103D900084824100F809F8001A0AF900E550880009
:103DA000041D020000000000080037000400280085
:103DB000E34F800084824100F809F8001A0AF900F4
:103DC000E5508800041D02000000000005003700D7
:103DD00020002000F809B400901F7800F809F900CD
:103DE000BDFF3700F809E20003003A000020EF00B1
:103DF0000600370005003700C44F8000640242000F
:103E00000400780000A0B700000037004F037800DE
:103E1000CF027800000006004200F8003600F800EB
:103E20003200F800801F7800200020000C000900FC
:103E3000B01F78002202AE00FEFF37003011800074
:103E4000DCE9B700A028EC007CC9BF000160EF00EE
:103E50000080B200050032001080B2001100320074
:103E60003080B2002000320082003700E44E800033
:103E7000F4CFB2000A003A00E44B80004822DE0092
:103E800004007800A608B40080027800DC89BF0036
:103E9000804298007D69EC0010C0B3007CE9B70057
:103EA00075003700E44E8000F4CFB2000B003A00FA
:103EB000E44B80004822DE0004007800A608B4002D
:103EC00080027800DC89BF00804298007D69EC00A8
:103ED00020C0B3007CE9B700020037007D69EF0025
:103EE0007C69EF0064003700E44B80004822DE006C
:103EF0006224E1000F003A00E44E80006124E100FA
:103F000009003A00E44B80004822DE0004007800FB
:103F1000A608B40080027800DC89BF0080429800C7
:103F20007D69EC00020037007D69EF007C69EF00DD
:103F30004F003700E44B80004822DE006324E1009C
:103F40000B003A00E44B80004822DE0004007800B9
:103F5000A608B40080027800DC89BF008042980087
:103F6000DCC9BF007EE9B7007D69EC004000370086
:103F7000F44B80000960EF00330020000480410012
:103F8000E44B80004822DE000020E10009003100FF
:103F9000E44B80004822DE0004007800A608B4004C
:103FA00080027800DC89BF00804298007D69EC00C7
:103FB0002F003700F44B80000960EF003300200031
:103FC00004804100E44B80004822DE000400E10050
:103FD00027003A00E44B80004822DE00040078000D
:103FE000A608B40080027800DC89BF0080429800F7
:103FF0007D69EF007E69EF009E28EC00848A200036
:10400000344F8800A608F800E809F900E49D200074
:10401000544F88009A1C020000000000F44E8000FB
:104020006120E10006003A00A608F800F409F90052
:10403000C01D020000000000DA28ED00A428EC00FA
:104040007C69EF0004012000B44F88005A1E020072
:1040500000000000A6A8B700A608E20003003A008E
:104060009560A900D828EC0001003700DA28EC00A0
:1040700001003700000037008560A900A001200082
:104080000C0009004F1078004F0078003200F90052
:104090003600F9004200F90000400600851F780054
:1040A000861F7800871F780020002000DE09B400FA
:1040B000900278000500E00004003A00154F8000EF
:1040C00020C0B300804A7800220037002000200082
:1040D000DE09B40080027800950AE900054F8000EF
:1040E00080002000DE09B40010037800600020008A
:1040F000DE09B4009003780007004300904A78007E
:1041000060002000DE09B40080027800950AE80013
:1041100060002000DE09B40090027800000020005A
:10412000DE09B40000027800140078000028E100E5
:1041300006003A0060002000DE09B400800278002A
:10414000804AEB0000C0B30090429800154F8000F9
:10415000804AEB00CF0378004F037800CF0278004D
:10416000000006008580A9004200F8003600F80033
:104170003200F800801F7800200020000C000900A9
:10418000B01F7800A4802000F44E8800649D2000B9
:10419000044F8800749D2000144F88004E200200B8
:1041A00000000000D749E20006003A00D6C9BF006F
:1041B0002322AF00FEFF370024E2B7002562EF00A4
:1041C000020037009580A9009808A800A0012000EF
:1041D0000C0009004F1078004F0078003200F90001
:1041E0003600F9004200F900004006004200F800E5
:1041F0003600F8003200F800801F78002000200010
:104200000C000900B01F7800F029EF002400200006
:10421000944F8800A0120200000000007A69EF00AD
:104220005E29EF005229EF005429EF00C41220004C
:10423000844B880055168000E8826200C32ADE00A5
:104240000500E000050032008240A8006B69EF0025
:1042500010C0B30078E9B700040037008240A9001D
:1042600010C0B3006BE9B7007569EF0087A0A90023
:10427000A00120000C0009004F1078004F007800CA
:104280003200F9003600F9004200F9000040060053
:104290004200F8003600F8003200F800801F780075
:1042A000200020000C000900B01F7800EC29EF006E
:1042B00024002000744F8800D81202000000000083
:1042C0007B69EF006029EF005A29EF005C29EF00BD
:1042D000441F2000944B880055168000E282620043
:1042E000C12ADE000500E000050032008220A8009F
:1042F0007469EF0010C0B30079E9B700040037001B
:104300008220A90010C0B30074E9B7007669EF00FD
:104310008680A900A00120000C0009004F10780041
:104320004F0078003200F9003600F9004200F90031
:1043300000400600851F7800C00020008209B400FC
:1043400080027800804AEB0000C0B30090429800E1
:1043500000C0B300A042980000C0B300B042980073
:10436000000120008209B40080027800804AEB003E
:1043700000C0B3009042980000C0B300A042980073
:1043800000C0B300B0429800400120008209B40090
:1043900080027800804AEB0000C0B3009042980091
:1043A00000C0B300A042980000C0B300B042980023
:1043B000800120008209B40080027800804AEB006E
:1043C00000C0B3009042980000C0B300A042980023
:1043D00000C0B300B0429800C00120008209B400C0
:1043E00080027800804AEB0000C0B3009042980041
:1043F00000C0B300A042980000C0B300B0429800D3
:10440000000220008209B40080027800804AEB009C
:1044100000C0B3009042980000C0B300A0429800D2
:1044200000C0B300B0429800400220008209B400EE
:1044300080027800804AEB0000C0B30090429800F0
:1044400000C0B300A042980000C0B300B042980082
:10445000CF0278000000060081E0A900040E2000D1
:104460001402880081E0A80000000600851F780083
:104470002CA3EF000516800000FE2F0085026000CF
:1044800005168800A4FF2F0044168800C442A80027
:10449000C482A800CC42A800CC62A8008221EF0010
:1044A000E4002000240C88008821EF00E4002000B4
:1044B000540C88000A21EF001221EF00743E200006
:1044C000740888000400280094088800140820005C
:1044D000140A88008420A9009420A8001408200051
:1044E000340A880084A0A90094A0A8001408200021
:1044F000540A880088A0A90098A0A80014082000E9
:10450000740A880088C0A90098C0A8000621EF009E
:104510001021EF000CA1EF0004002800840888009F
:104520008780A9001821EF002021EF009486210048
:10453000E408880004032800040988009780A80084
:10454000CF027800000006009808A8009628EF0027
:104550009A28EF009C28EF00A228EF009E28EF0089
:10456000A028EF00A428EF00D828EF00DA28EF00F9
:10457000000006004200F80081E0A90042E0EF00E0
:1045800081E0A80004012000B44F88005A1E0200F8
:104590000000000081E0A9004200F90081E0A800CD
:1045A000A6A8B700A608E20006003200DA28EC0050
:1045B000030009002682BF008560A9009560A8005D
:1045C00001003700D828EC0000000600851F7800A5
:1045D000000020008209B40080027800344C800082
:1045E00084029800200020008209B4008002780034
:1045F000804AEB0000C0B3009042980040002000C9
:104600008209B40080027800804AEB0000C0B30049
:1046100090429800600020008209B4008002780077
:10462000804AEB0000C0B300904298008000200058
:104630008209B40080027800244C80008402980033
:10464000CF02780000000600851F780000002000DF
:104650008209B40080027800344C80008402980003
:10466000200020008209B40080027800804AEB001C
:1046700000C0B30090429800400020008209B400BE
:1046800080027800804AEB0000C0B300904298009E
:10469000600020008209B40080027800804AEB00AC
:1046A00000C0B30090429800800020008209B4004E
:1046B00080027800244C800084029800CF027800A9
:1046C00000000600848A2000144C8800248B2000FF
:1046D000244C880084002000344C8800E62202002C
:1046E00000000000A4802000144C880044812000B9
:1046F000244C880004082000344C88002423020045
:10470000000000000000060081E0A9004220EF0048
:1047100081E0A80000000600851F7800861F780051
:10472000871F7800200020008209B40090027800E2
:104730000500E00004003A00354C800020C0B300C2
:10474000804A780025003700200020008209B4004C
:1047500080027800950AE900000020008409B40076
:1047600080027800800020008209B40010037800E5
:10477000600020008209B40090037800C13BDD0096
:1047800007004300900A7800600020008209B4000E
:1047900080027800950AE800600020008209B400D9
:1047A00090027800000020008209B4000002780026
:1047B000140078000028E10006003A0060002000A4
:1047C0008209B40080027800804AEB0000C0B30088
:1047D00090429800354C8000804AEB00CF0378006F
:1047E0004F037800CF02780000000600851F780094
:1047F00094C9BF000AE0B7000B60EF0005407800E5
:104800000BE0B7008042EB0095C9BF000160EF00EC
:104810000080720000A0B700CF0278000000060000
:10482000851F7800861F7800E10820000000E00066
:104830001200320000F0A700040037004200A90077
:104840000080D2008100E900FAFF37000180FD00FE
:104850004200A9008180D30000F0A1000080FD008B
:10486000814068000040B200070037000140780036
:104870000170A0000140B200030037000000EB000F
:104880008000EB00000037004F037800CF02780073
:1048900000000600851F7800C50020000400090004
:1048A000B51F78008004EB00838468000103780062
:1048B0008002780003047800820378008180D200AF
:1048C0000180FD008180FB000100E0004E0032000D
:1048D0008381D2000380FD008381FB000300E000A0
:1048E000490032000000EB0003C050000300390013
:1048F000F047B00044003100030037001048B10019
:10490000410039004000320085007800060178003F
:104910000270A000F20FB200F80FB2000870A00001
:104920009A0120008001EB000002EB00878050001C
:1049300008015900020033000400310004003A006D
:104940008780400008014900010037000400A000F2
:104950000A05E900070032004200A9008180D20068
:104960000281D2004200A9000482D2008381D200D9
:10497000EEFF37000005EB000380A70001003700C1
:10498000060037004200A9008381D3000370A10014
:104990000482D3000A85D200020037000000E9003B
:1049A000190032000AF0A700050039008180D2000A
:1049B0000281D200878050000801590009003900A7
:1049C0000402E80007003A008301E80005003A000D
:1049D0000000E8000C003200020037000000E9008F
:1049E000090032000080FD008080D30001F0A000AB
:1049F00009F0A60001F0A1000370A10081C06900C8
:104A000004007800030037000000200001002000AF
:104A1000000037004501200004000900CF12780093
:104A2000CF02780000000600851F780020002000DB
:104A30009A09B40080027800951F78000000F90000
:104A4000CF02780000000600851F7800861F7800DE
:104A5000871F7800200020009C09B4009002780095
:104A6000000020009C09B4000002780014007800C7
:104A70000028E10004003A00054D800010C0B3009A
:104A8000804A780022003700200020009C09B400F2
:104A900080027800950AE800800020009C09B4009C
:104AA00090027800400020009C09B40010037800B8
:104AB000868342009E89BF0080439800400020000A
:104AC0009C09B40080027800950AE80040002000AC
:104AD0009C09B40090027800000020009C09B400FA
:104AE00000027800140078000028E10006003A0077
:104AF000400020009C09B40080027800804AEB004E
:104B000000C0B30090429800054D8000804AEB0041
:104B1000CF0378004F037800CF0278000000060032
:104B2000851F78009769EF00300020009009B400DD
:104B300010427800644242000440780092E9B700D5
:104B40009249E20027003200A4802000D44C880063
:104B5000142502000000000004082000000052009C
:104B600094A9B70092C9BF000160EF00A44C800077
:104B70000020E1001B0039009369EF0093C9BF00DA
:104B8000944C80000024E10011003600944C800019
:104B90004822DE00040078009009B40090427800BA
:104BA0009E09F800E5FF9F009E09F900A4802000FF
:104BB000E44C880064992000044D880024250200FC
:104BC000000000009769EC009369EC00EBFF3700F0
:104BD0009808AE00030037009808A9008580A80057
:104BE0009580A80097C9BF00CF027800000006009A
:104BF000851F7800C500200004000900B51F78005B
:104C00007A69EF007B69EF007869EF007969EF005E
:104C10006B69EF007469EF006E29EF00000020005F
:104C20008209B40010427800F4CFB20008033A00C1
:104C3000100020008209B40010427800F4CFB200C6
:104C400003033A00200020008209B40010427800DB
:104C50006124E100FE023A00400020008209B40015
:104C60001004E0000E003A0010C0B3006BE9B7007A
:104C70007869EF0010C0B30075E9B700C4122000D6
:104C8000844B880010C0B30074E9B7007969EF0065
:104C900010C0B30076E9B700441F2000944B880091
:104CA000400020008209B400104278006924E1002D
:104CB00020003A00500020008209B40090427800A1
:104CC000600020008209B400104378009409F800C5
:104CD000E5FF9F009409F9009409F800F6FF9F0092
:104CE0009409F900F62302000000000070A9B70043
:104CF00010C0B3006BE9B7007869EF0070002000C6
:104D00008209B4001004E00002003A007569EF0067
:104D100007003700700020008209B40010427800BC
:104D20006124E10002003A0010C0B30075E9B70049
:104D300024003700400020008209B40010427800AF
:104D40006A24E1001F003A00500020008209B400EC
:104D500090427800600020008209B400104378007F
:104D60009409F800E5FF9F009409F9009409F80000
:104D7000F6FF9F009409F900F623020000000000EE
:104D800072A9B70010C0B30074E9B7007969EF00E9
:104D9000700020008209B4001004E00002003A0014
:104DA0007669EF0007003700700020008209B40028
:104DB000104278006124E10002003A0010C0B30004
:104DC00076E9B700400020008209B4001042780064
:104DD0006C24E1002B003A00500020008209B4004E
:104DE000104278006924E10011003A0010C0B300BD
:104DF00078E9B7006B69EF007029EF004200F80016
:104E000081E0A90042E0EF0081E0A800F029EF0076
:104E100024002000944F8800A0120200000000002F
:104E200081E0A9004200F90081E0A80015003700E8
:104E3000500020008209B400104278006A24E1008A
:104E400010003A0010C0B30079E9B7007469EF00B0
:104E50007229EF004200F80081E0A90042E0EF0073
:104E600081E0A800EC29EF0024002000744F8800A6
:104E7000D81202000000000081E0A9004200F90001
:104E800081E0A800400020008209B40010427800B0
:104E90006724E1004E003A00500020008209B4006F
:104EA00090427800600020008209B400104378002E
:104EB0009409F800E5FF9F009409F9009409F800AF
:104EC000F6FF9F009409F900F6230200000000009D
:104ED0001024020000000000800278000103780026
:104EE00005007800860078000200200003122400EC
:104EF0004A240200000000004EA9B700814A880041
:104F0000700020008209B4009042780080002000E8
:104F10008209B400104378009409F800E5FF9F006F
:104F20009409F9009409F800F6FF9F009409F9002C
:104F3000F623020000000000102402000000000020
:104F40008002780001037800050078008600780070
:104F500002002000031224004A2402000000000086
:104F600056A9B700C14A880014002000744B88007D
:104F70004200F80081E0A90042E0EF0081E0A800D3
:104F8000F029EF0024002000944F8800A0120200B6
:104F90000000000081E0A9004200F90081E0A800C3
:104FA0004200F80081E0A90042E0EF0081E0A800A3
:104FB000EC29EF0024002000744F8800D812020072
:104FC0000000000081E0A9004200F90081E0A80093
:104FD000400020008209B400104278006824E100FB
:104FE0005C003A004200F80081E0A90042E0EF00D6
:104FF00081E0A8005289BF00A14A80003617020054
:105000000000000081E0A9004200F90081E0A80052
:105010008002780000F02F00850260000BC0BF0006
:1050200084E9B7008569EF004200F80081E0A9003B
:1050300042E0EF0081E0A8005289BF00A14A800051
:10504000361702000000000081E0A9004200F900CC
:1050500081E0A8008002780005027800F40FB20019
:10506000344C88004200F80081E0A90042E0EF00E3
:1050700081E0A8005A89BF00E14A8000361702008B
:105080000000000081E0A9004200F90081E0A800D2
:105090008002780000F02F00850260000BC0BF0086
:1050A00088E9B7008969EF004200F80081E0A900B3
:1050B00042E0EF0081E0A8005A89BF00E14A800089
:1050C000361702000000000081E0A9004200F9004C
:1050D00081E0A8008002780005027800F40FB20099
:1050E000544C8800C4E8EF00F0CFB300C5E8B70027
:1050F00010C0B300C6E8B70070C0B300C7E8B7007F
:1051000080C0B300C8E8B70084C9BF00C9E8B700D1
:1051100086C9BF00CAE8B70088C9BF00CBE8B7009E
:105120008AC9BF00CCE8B7005516800000F02F00F8
:10513000850260000BC0BF00CDE8B700F0C0B3002F
:10514000CEE8B700448C2000844C880090250200F3
:1051500000000000400020008209B40010427800E6
:1051600074C3B200BA013A00500020008209B400B2
:105170001004E000D9003A00600020008209B40069
:1051800000027800144078000160EF001024020053
:105190000000000080027800010378007000200009
:1051A0008209B40000027800144078000160EF002A
:1051B0001024020000000000800378000104780041
:1051C000070078008800780002002000832C24006B
:1051D0004A240200000000004300A9004200F80039
:1051E00081E0A90042E0EF0081E0A8000001780022
:1051F0008101780005007800860078001013020015
:105200000000000081E0A9004200F90081E0A80050
:10521000FEA8B70001488800800020008209B40081
:1052200000027800144078000160EF0010240200B2
:105230000000000080027800010378009000200048
:105240008209B40000027800144078000160EF0089
:1052500010240200000000008003780001047800A0
:10526000070078008800780002002000832C2400CA
:105270004A240200000000004300A9004200F80098
:1052800081E0A90042E0EF0081E0A8000001780081
:105290008101780005007800860078001013020074
:1052A0000000000081E0A9004200F90081E0A800B0
:1052B00002A9B70021488800A00020008209B4009C
:1052C00000027800144078000160EF001024020012
:1052D000000000008002780001037800B000200088
:1052E0008209B40000027800144078000160EF00E9
:1052F0001024020000000000800378000104780000
:10530000070078008800780002002000832C240029
:105310004A240200000000004300A9004200F800F7
:1053200081E0A90042E0EF0081E0A80000017800E0
:1053300081017800050078008600780010130200D3
:105340000000000081E0A9004200F90081E0A8000F
:1053500006A9B70041488800600020008209B40017
:1053600090427800700020008209B4001043780059
:10537000800020008209B400904378009000200053
:105380008209B40010447800A00020008209B40013
:1053900090447800B00020008209B40010457800E5
:1053A00001002000010078000160EF00FC0D020008
:1053B000000000008100E8002322AF00FEFF37005C
:1053C00024A2B700800020000008E600F5FF3700A7
:1053D000054078000160EF00040020006217020021
:1053E000000000002322AF00FEFF3700E40220008F
:1053F00024118800064078000160EF0004002000BE
:105400006217020000000000E100200001007800A7
:105410000160EF00FC0D0200000000008100E800C8
:105420002322AF00FEFF370024A2B7005001200066
:105430000008E600F5FF3700074078000160EF0044
:105440000400200062170200000000002322AF00C9
:10545000FEFF3700E4022000241188000840780095
:105460000160EF000400200062170200000000004D
:10547000B1012000010078000160EF00FC0D020086
:10548000000000008100E8002322AF00FEFF37008B
:1054900024A2B700300220000008E600F5FF370024
:1054A000094078000160EF0004002000621702004C
:1054B000000000002322AF00FEFF3700E4022000BE
:1054C000241188000A4078000160EF0004002000E9
:1054D0006217020000000000DD00370050002000CD
:1054E0008209B400104278006124E100D8003A003B
:1054F000600020008209B4000002780014407800A7
:105500000160EF001024020000000000800278001B
:1055100001037800700020008209B40000027800C6
:10552000144078000160EF00102402000000000029
:105530008003780001047800070078008800780074
:1055400002002000832C24004A24020000000000F6
:105550004300A9004200F80081E0A90042E0EF000A
:1055600081E0A80000017800810178000500780042
:1055700086007800101302000000000081E0A900FE
:105580004200F90081E0A80026A9B700414988003F
:10559000800020008209B4000002780014407800E6
:1055A0000160EF001024020000000000800278007B
:1055B00001037800900020008209B4000002780006
:1055C000144078000160EF00102402000000000089
:1055D00080037800010478000700780088007800D4
:1055E00002002000832C24004A2402000000000056
:1055F0004300A9004200F80081E0A90042E0EF006A
:1056000081E0A800000178008101780005007800A1
:1056100086007800101302000000000081E0A9005D
:105620004200F90081E0A8002AA9B700614988007A
:10563000A00020008209B400000278001440780025
:105640000160EF00102402000000000080027800DA
:1056500001037800B00020008209B4000002780045
:10566000144078000160EF001024020000000000E8
:105670008003780001047800070078008800780033
:1056800002002000832C24004A24020000000000B5
:105690004300A9004200F80081E0A90042E0EF00C9
:1056A00081E0A80000017800810178000500780001
:1056B00086007800101302000000000081E0A900BD
:1056C0004200F90081E0A8002EA9B70081498800B6
:1056D000600020008209B400904278007000200031
:1056E0008209B40010437800800020008209B400D1
:1056F00090437800900020008209B40010447800A4
:10570000A00020008209B40090447800B00020007E
:105710008209B400104578000100200001007800E3
:105720000160EF00340E0200000000008100E8007C
:105730002322AF00FEFF370024A2B7008000200024
:105740000008E600F5FF3700054078000160EF0033
:105750000400200062170200000000002322AF00B6
:10576000FEFF3700E4022000241188000640780084
:105770000160EF000400200062170200000000003A
:10578000E1002000010078000160EF00340E02000B
:10579000000000008100E8002322AF00FEFF370078
:1057A00024A2B700500120000008E600F5FF3700F2
:1057B000074078000160EF0004002000621702003B
:1057C000000000002322AF00FEFF3700E4022000AB
:1057D00024118800084078000160EF0004002000D8
:1057E0006217020000000000B101200001007800F3
:1057F0000160EF00340E0200000000008100E800AC
:105800002322AF00FEFF370024A2B70030022000A1
:105810000008E600F5FF3700094078000160EF005E
:105820000400200062170200000000002322AF00E5
:10583000FEFF3700E4022000241188000A407800AF
:105840000160EF0004002000621702000000000069
:105850004501200004000900CF127800CF02780033
:10586000000006000F782200F07F220020A0B70081
:1058700000000000404424004005880081E0A800AA
:105880006004200042E7B7007005200042E7B7003F
:1058900042C7A900F013200080A6B70030F0230013
:1058A00082A6B700405020008EA6B700607020008E
:1058B00090A6B700C0F02300A4A6B70030012000D6
:1058C000C0A6B70020012000C2A6B700003020000B
:1058D000CCA6B7006004200042E7B70070052000A6
:1058E00042E7B70042C7A8004427EF0004002800A1
:1058F0000411880004402000141188002062A800D0
:105900002402200044118800270037008002030091
:105910002CFFFF0080020700440000008002070007
:1059200044000000800207004400000080020800DC
:105930000000000080020800000000008002080053
:10594000000000008002080000000000C0E4080021
:105950000800000002FFFF00400A00000006FF00F0
:10596000FF0000000000C00031094E0000000000F0
:105970000201E8006110E10004003A009101BA0060
:105980003182BA0006C0BF00000006006210E100CC
:1059900002003A0007C0BF000000060008C0BF00B8
:1059A0000001EB00000006000600200000002000BF
:1059B0009001880060C82200800078000001EB00A0
:1059C000B82C0200000000000BE0B700B82C020069
:1059D000000000000AE0B7000500E00019003200F6
:1059E00005F0A60007003700B82C020000000000F8
:1059F0000DE0B700B82C0200000000000CE0B7007A
:105A000005F0A10005E0A6000800370005E0A100B0
:105A10008502E900B82C02000000000080437800F5
:105A200005800900075B7800E5FF3700B82C02000D
:105A300000000000005B78008502E900FBFF3A00EF
:105A4000DFFF370024A2200034408800A4D52100C5
:105A500014518800242AEF00E48F2000144C8800A1
:105A60009A2102000000000064922000144C88007B
:105A70009A21020000000000FE28EF00041F24000D
:105A8000044888000229EF000429EF000629EF00EE
:105A90000829EF002629EF00041224004449880059
:105AA0002A29EF002C29EF002E29EF003029EF00E2
:105AB0002C220200000000008680A9009680A80029
:105AC00087A0A90097A0A8008220A8008240A80073
:105AD0003622020000000000A422020000000000A4
:105AE000BA22020000000000622302000000000051
:105AF00084230200000000002C22020000000000AD
:105B0000848A2000144C8800248C2000244C8800B7
:105B100004982000344C88008C2302000000000010
:105B20008049E20016003A00C208F8008209F90034
:105B3000F8250200000000004200F80081E0A90002
:105B400042E0EF0081E0A800C208F800F409F90083
:105B5000C01D02000000000081E0A9004200F90021
:105B600081E0A800DA28ED00842302000000000094
:105B70008149E20001003A00CC62A900020037002E
:105B80008423020000000000DBFF37000040FE001D
:020000040001F9
:0807F800C7F900FF7F3F00FF7D
:00000001FF
;PIC24FJ48GA002
;CRC=C9FB  CREATED="15-Nov-17 22:51"
