:081800008E1C04000000000032
:08185000601804000000000014
:0818700024190400000000002F
:0819280072160400000000002B
:10197000E819040000000000AC1A04000000000098
:081BF80024478000E32E2000C9
:101C00000418E10002003E00E42E20002447880072
:101C1000E648E20005003A00E408F8008001F90017
:101C2000C442A800C482A9000E00370034478000D7
:101C30006124E10005003A00E408F8008001F900A1
:101C4000C482A800C442A9000600370034478000BF
:101C50006224E10003003A008021EF00C442A900A1
:101C6000C482A9000000060004478000E32E200083
:101C70000418E10002003E00E42E20000447880022
:101C8000144780006124E10005003A00E008F800F4
:101C90008601F900C402A800C422A9000D00370083
:101CA000E248E20005003A00E008F8008601F90089
:101CB000C422A800C402A90006003700144780000F
:101CC0006224E10003003A008621EF00C402A9006B
:101CD000C422A90000000600D448E20007003A0030
:101CE000D5C8BF00E6E8B700D608F800E408F90058
:101CF000FC0D02000000000009003700A44680002F
:101D00006124E10006003A00D5C8BF00E2E8B70050
:101D1000D608F800E008F900340E020000000000C8
:101D200000000600851F7800C500200003000900A0
:101D3000B51F780000027800810278000203780065
:101D4000830378000000EB008000EB000001EB0053
:101D50008001EB000800A10007F0A6000500370095
:101D60000800A0000402EA008582EA000683EA0077
:101D70008783EA008504720002003A00870473003A
:101D800015003200394720000340A7000B00370040
:101D90004200A9000482D2008582D2000683D200CC
:101DA0008783D2000080D2008180D2000281D200DD
:101DB0008381D2008904E900F3FF3A00C44CDD00BE
:101DC0004200A90009F0A1000340A10083816C003A
:101DD0000800A70003F0A00025012000030009006F
:101DE000CF127800CF02780000000600881F78002C
:101DF0002801200004000900B81F78008005EB00CE
:101E00006066B8000304780087047800FA7F200039
:101E10004200A9004220A90044C4DE000804650075
:101E20000800E000710032004200A9004220A90031
:101E3000C4CCDE00890465000900E0006B003200BC
:101E40000884440009B0A70004003700F83FB1003F
:101E50006600320065003900030037001A40200098
:101E60008542450061003100878669004200A90073
:101E70004220A900F300B2000340A000F700B20026
:101E80000740A000881F78000124B800002DB8008A
:101E90000A0544008B854C000C80B0000224B80079
:101EA0008B0544000C864C00012CB8000005EB00AB
:101EB0008B0544000C864C000A80B0000034B8004A
:101EC0008B0544000C864C000A80B0008005EB00B6
:101ED0000324B8000C0644000A854C000B80B000B7
:101EE000022CB8000C0644000A854C000B80B000A0
:101EF0000134B8000C0644000A854C000B80B00089
:101F0000003CB8000C0644000A854C000B80B00071
:101F10000C0078000006EB00032CB8000A05440012
:101F20008B854C000C80B0000234B8000A054400D8
:101F30008B854C000C80B0000334B8008B05440046
:101F40000C864C00013CB8000A0544008B854C000F
:101F50000C80B000023CB8008B0544000C864C009D
:101F6000033CB8000C0644008A0078000B0178009E
:101F70008C017800540020004200A9008381D30026
:101F80000281D3008180D3000080D3000402E900E5
:101F9000F9FF3A004F0478000804E80001037000DC
:101FA0000100320002003700030371000800320014
:101FB0000340A700060037004200A9000080D200BD
:101FC0008180D2000281D2008381D2000804E9001E
:101FD0004444DD0003F0A1000DF0A70003F0A000D1
:101FE0000340A10083016C00030037006000B800CB
:101FF0006001B80000003700A801200004000900BB
:102000004F1478004F04780000000600881F780005
:102010002801200004000900B81F780087866900A5
:102020000304780087047800FA7F20004200A900AA
:102030004220A90044C4DE00080465000800E00056
:102040006C0032004200A9004220A900C4CCDE008E
:10205000890465000900E000660032000005EB001D
:102060000906540003003900FC3FB0006100310054
:10207000040037001B4020000B0656005D003900AD
:102080005C0032000004EB008004EB000005EB0074
:102090008005EB00F301B2000340A000F701B2009D
:1020A0000740A0008C1F78006C0320000400500043
:1020B00085805800060159008781590002003300CD
:1020C0000600310006003A00040040008580480008
:1020D0000601490087814900010037000800A0007F
:1020E0000C06E9000B0032004200A9000080D2007B
:1020F0008180D2000281D2008381D2004200A900F7
:102100000884D2008984D2000A85D2008B85D2004F
:10211000E6FF37004F0678000B50A700010037009C
:10212000060037004200A9008B85D3000A85D30042
:102130008984D3000884D300030037000C06E9002B
:102140004200A9002B0032004200AF000900370016
:102150000080D2008180D2000281D2008381D2002F
:1021600004025000858258000603590087835900F5
:10217000150039000804E80013003A008904E8005B
:1021800011003A000A05E8000F003A008B05E8004C
:102190000D003A000C06E800160032000A00370075
:1021A0000C06E900130032000B40A70006003700C0
:1021B0004200A9000884D2008984D2000A85D20096
:1021C0008B85D200F8FF37004466DD004200A9008D
:1021D0000CF0A1000DF0A7000CF0A0000B40A10036
:1021E0008B016E000A0178008900780008007800F1
:1021F0000500370000002000010020000200200040
:102200000300200000003700A8012000040009009E
:102210004F1478004F04780000000600851F7800F6
:10222000861F780003027800030378004200A900AB
:1022300044A2DE00F57F20000482620003003A0021
:102240006000B8000001EB00130037000438B10053
:10225000F300B200370020004200A9000080D20045
:102260008180D2000281D2008381D2008703E900FD
:10227000F9FF3A0001007800820078000370A100A5
:102280000480FD004200A9000482D30006F0A700EC
:1022900004F0A00003016A004F037800CF02780029
:1022A00000000600851F7800C5002000030009001B
:1022B000B51F780060002000C608B40080027800D6
:1022C00040002000C608B400100378000600780023
:1022D000010020000200200003002000920E0200F6
:1022E00000000000851F7800861F78000400200091
:1022F0000500200006002000E7FB2300F60E020088
:10230000000000004F037800CF027800000378003F
:10231000810378000204780083047800851F780028
:10232000861F7800871F78000600780087007800F5
:102330000801780089017800F4512800B51E2500B5
:1023400086EB210097002400F60E0200000000003A
:10235000CF0378004F037800CF02780000037800A5
:10236000810378000204780083047800851F7800D8
:10237000861F7800871F78000600780087007800A5
:102380000801780089017800040020000500200081
:102390000600280067062400061002000000000066
:1023A000CF0378004F037800CF0278000003780055
:1023B000810378000204780083047800851F780088
:1023C000861F7800871F7800060078008700780055
:1023D0000801780089017800040020000500200031
:1023E00006002000C7012400F60E020000000000D5
:1023F000CF0378004F037800CF0278000E1102005F
:102400000000000024002000B41A7800B41A7800FC
:102410002501200003000900CF127800CF027800C8
:1024200000000600851F7800C50020000300090099
:10243000B51F78008004EB00080028004300AF00BF
:1024400083016C000000E00003003A00FAFF27005F
:102450000A8560004220AE00010578008A85690087
:102460000103780083037800030678004220A90066
:102470004200A9000683D2000680FD00F60FB200DC
:102480000600E000A10032004220A9004200A9009D
:102490008783D2000780FD00F70FB2000700E0003D
:1024A0009F0032004220A9004200A9000638E10046
:1024B0009C003200A30033000900A1000910A00015
:1024C0000684530007037800F10FB2000170A000EA
:1024D000F30FB2000370A000870220000838E1006B
:1024E000110033004220A9004200A9008180D300DE
:1024F0000080D3000804E900FAFF3A000D0037001D
:10250000870220000838E100090033004220A900BA
:102510004200A9008381D3000281D3000804E900AE
:10252000FAFF3A000F0037000200780083007800BD
:10253000430037000BF0A600110037000940A70048
:102540008C0578000000EA000200320081C0EA0039
:10255000010037008100EA000940A7002B00370086
:10256000070037000BF0A600050037000201EA0063
:102570000200320083C1EA00010037008301EA0053
:10258000F50FB2004220A9004200A900020040005D
:1025900083C048004200AF000930A0000900A70036
:1025A000090037000910A700010037000B003700B1
:1025B0000BF0A700150037000930A70029003700ED
:1025C0000960A0001E0037000BF0A7000F003700C5
:1025D0000930A70023003700190037000920A100A7
:1025E0000BF0A700040037008A0578000930A70027
:1025F0001C003700360037000940A00001C8B200B7
:102600000170A700CDFF37008A057800F10FB200F6
:10261000810370000A0032000170A7000800370033
:102620004220A9004200A9000080D2008180D2008F
:102630000603E9004220AF0031003700F6FF370003
:102640000900A7008A0578000910A7008C0578000A
:102650000950A6001A0037000AF0A7000080A00069
:102660001B0037004200A80081C0D3000080D300C7
:102670004200AF000950A0000603E800200032002D
:102680000950A600080037000000E80006003A00E4
:102690008140E80004003A0081C0D3000080D300EC
:1026A0000603E800160032000900A7008A0578003A
:1026B0000910A7008C0578004220AF0010003700F9
:1026C0000960A7008A0578000970A7008C057800CA
:1026D00001017000230032000170A1000680FD009E
:1026E0004220A9004200A9000683D30081006B00AC
:1026F00001F0A0000BF0A60001F0A10019003700C6
:102700000000200001002000160037000AF0A7009A
:1027100083016C000200780083007800110037000C
:1027200010003700F30FB2000370A000F10FB200E9
:102730000170A0000BF0A7000370A1000920A00009
:1027400088FF370007045300F10FB2000170A000AA
:10275000F30FB2000370A0000910A1000900A0004F
:1027600067FF37002501200003000900CF12780021
:10277000CF02780000000600851F7800861F7800D1
:10278000871F78000382680004F0A6000600370067
:102790004200A9004220A90001F0A600260037004F
:1027A0004200A8002400370001027800800278006F
:1027B00003037800820378008180D2000180FD004D
:1027C0008381D2000380FD0081C0510005003200EA
:1027D00004F0A600180037001000200042E0B60008
:1027E0001500370084407800864178000170A10010
:1027F0000370A10081C051000500320004F0A60062
:102800000D0037001000200042E0B6000A0037003B
:10281000858053000500320004F0A6000600370052
:102820001000200042E0B600030037004200A9007B
:102830000100370000003700CF0378004F03780015
:10284000CF02780000000600851F7800C500200038
:1028500004000900B51F78000002780081027800AA
:1028600083037800020378004200A9004220A900F7
:102870008180D2000180FD00F10FB2000100E00074
:102880004B0032004200A9004220A9008381D200FF
:102890000380FD00F30FB2000300E00044003200AB
:1028A0000080FB0001C0410004003100F007B100CE
:1028B0003F0032003E003900020037001048B000EF
:1028C0003B00310007856A004200A9004220A900B0
:1028D000F50FB2000570A0004200A900F70FB2008A
:1028E0000770A0000621B800062CB80083014C0038
:1028F000890078004200AF008100E8004200A90092
:10290000043CB80083014C0081804C00072CB800C7
:1029100081004C000000E8000100E0004220AF0010
:1029200001003700030037000300E0004220AF0041
:102930000500370001F0A700030037008381D200B3
:102940008180D2000000E900010178004200A90066
:102950000370A6000900370007F02F00878161008F
:102960000310B000600149000200E00003003A00DB
:102970000300E00001003A000000E8000080FD00D4
:102980004200A9004220A9008080D3000AF0A700DD
:1029900001F0A00002F0A1000280FD00814069006A
:1029A0000380FD0003417800020078000300370037
:1029B0000000200001002000000037004501200039
:1029C00004000900CF127800CF0278000000060052
:1029D000851F7800C500200003000900B51F78009E
:1029E000C0012000CC08B400800278000000200064
:1029F000CC08B400C4002000301A7800301A7800E7
:102A000040002000CC08B400000278000300200041
:102A1000B4197800B41978004300A90000017800C7
:102A20008101780006007800870078001212020009
:102A3000000000000003BE0080002000CC08B400AD
:102A40000002780003002000B4197800B41978005F
:102A50004300A90000017800810178000600780099
:102A60008700780012120200000000000003BE0080
:102A7000C0002000CC08B400000278000300200051
:102A8000B4197800B4197800000178008101780049
:102A9000060078008700780024140200000000007F
:102AA0000003BE0000002000CC08B4000401200098
:102AB000301A7800301A780080002000CC08B4006A
:102AC0000002780003002000B4197800B4197800DF
:102AD000000178008101780000002000010024003E
:102AE00024140200000000004300A9000001780047
:102AF0008101780008007800890078001212020035
:102B0000000000000004BE0040022000CC08B40019
:102B10000002780003002000B4197800B41978008E
:102B200000017800810178000800780089007800B1
:102B300024140200000000004300A80000017800F7
:102B400081017800060078008700780012120200E8
:102B5000000000000003BE0080002000CC08B4008C
:102B600004012000301A7800301A7800800220001A
:102B7000CC08B4000002780003002000B4197800EB
:102B8000B41978000001780081017800080078000D
:102B90008900780024140200000000004300A9000E
:102BA0000001780081017800060078008700780035
:102BB000121202000000000004002000B41A780085
:102BC000B41A780080012000CC08B400800278009C
:102BD00000022000CC08B400C4002000301A7800A5
:102BE000301A7800C0012000CC08B4000002780040
:102BF00003002000B4197800B41978004300A9003C
:102C000000017800810178000600780087007800D4
:102C1000121202000000000004002000B41A780024
:102C2000B41A780000022000CC08B40080027800BA
:102C300080012000CC08B400B01A7800B01A7800E7
:102C400080022000CC08B4008002780040022000FE
:102C5000CC08B400B01A7800B01A78004002200006
:102C6000CC08B40080027800C0002000CC08B4007A
:102C7000B01A7800B01A780025012000030009007E
:102C8000CF127800CF027800000006000001780023
:102C900081017800014078000080FD0000F0A00074
:102CA0008180D2000180FD008180FB00E4082000CB
:102CB00081405200060032000000E00004003200B3
:102CC0004200A9000080D3008100E900FAFF3A0029
:102CD00003F0A600020037000000EA000000370001
:102CE000000006004200F8003600F8003200F8004C
:102CF000801F7800200020000C000900B01F780021
:102D00008A48E20008003A00D468EF0010C0B3001F
:102D1000D5E8B700441F2000B44688006C0E0200BE
:102D2000000000008F003700544480006124E1005F
:102D30008C003A002486200034468800521102009C
:102D40000000000064872000344688005211020011
:102D5000000000004300A8006288BF0021438000FB
:102D60004243800053438000121202000000000022
:102D700016A8B700C14088004300A8007688BF00AD
:102D8000C1438000E2438000F3438000121202003E
:102D90000000000042A8B700214288001688BF004A
:102DA000C140800001F0A10080027800010378009A
:102DB0000000200001F8230005017800860178005A
:102DC000BC130200000000002B003900A48020008A
:102DD00064468800E81402000000000000002000A3
:102DE000010020001241800023418000BC1302003A
:102DF00000000000010031000B003A002288BF00F3
:102E00002141800046160200000000008002780088
:102E1000D468EF00D568EF00B54688006C0E02005C
:102E200000000000140037002288BF00214180000C
:102E30000200200003002000BC130200000000007C
:102E40000D0039002288BF00214180004616020093
:102E500000000000F4FF2F0000A0B90080027800FD
:102E6000D468EF0010C0B300D5E8B700B5468800BD
:102E70006C0E0200000000004288BF00214280006A
:102E800001F0A1008002780001037800000020001A
:102E900001F823000501780086017800BC130200C8
:102EA000000000002F003900648320006446880081
:102EB000E8140200000000000000200001002000D3
:102EC0007242800083428000BC13020000000000B8
:102ED000010031000E003A004E88BF0081428000A0
:102EE000461602000000000080027800801F780073
:102EF00010C0B300D4E8B7004F007800D568EF00E9
:102F0000B54688006C0E0200000000001500370076
:102F10004E88BF0081428000020020000300200094
:102F2000BC130200000000000E0039004E88BF00F4
:102F3000814280004616020000000000F4FF2F00CE
:102F400000A0B9008002780010C0B300D4E8B70038
:102F500010C0B300D5E8B700B54688006C0E02007B
:102F6000000000008780A900A00120000C000900DB
:102F70004F1078004F0078003200F9003600F90059
:102F80004200F90000400600851F7800861F780087
:102F9000871F780055168000050278000403B200F0
:102FA00034468800C0002000C408B40080027800C5
:102FB000040A80008402980000012000C408B400C4
:102FC00080027800C0002000C408B400100378001C
:102FD000E0002000C408B40000027800140078006B
:102FE000800A530020012000C408B4008002780049
:102FF000C688BF00700360004433DE00374680009F
:103000000702B2004538DE0000006B000080EA00D5
:103010000003780061006300804A7800C688BF0022
:10302000F0026000C42ADE00364680000602B200CC
:103030004530DE000028E1000C003A00A00020002E
:10304000C408B4008002780010C0B300804A780041
:1030500040002000C408B400800278001502780007
:1030600061024200840A78000B003700A0002000B3
:10307000C408B4008002780020C0B300804A780001
:1030800040002000C408B4008002780015027800D7
:1030900061005200800A7800E0002000C408B400FB
:1030A00080027800C0002000C408B400900A7800B4
:1030B000CF0378004F037800CF02780000000600AD
:1030C0004200F8003600F8003200F800801F780057
:1030D000200020000C000900B01F7800248620008A
:1030E00024468800C4170200000000008420A900C4
:1030F000A00120000C0009004F1078004F0078005C
:103100003200F9003600F9004200F90000400600E4
:10311000851F7800861F7800871F7800551680006D
:10312000050278000403B20064468800C000200055
:10313000CA08B40080027800240A80008402980043
:1031400000012000CA08B40080027800C0002000FE
:10315000CA08B40010037800E0002000CA08B400D8
:103160000002780014007800800A5300200120003B
:10317000CA08B40080027800CC88BF0070036000E9
:103180004433DE00674680000702B2004538DE00A7
:1031900000006B000080EA0000037800610063001B
:1031A000804A7800CC88BF00F0026000C42ADE00AC
:1031B000664680000602B2004530DE000028E100CD
:1031C0000C003200A0002000CA08B4008002780081
:1031D00010C0B300804A780040002000CA08B40044
:1031E000800278001502780061024200840A7800AB
:1031F0000B003700A0002000CA08B400800278004D
:1032000020C0B300804A780040002000CA08B40003
:10321000800278001502780061005200800A780070
:10322000E0002000CA08B40080027800C00020003E
:10323000CA08B400900A7800CF0378004F037800E2
:10324000CF027800000006004200F8003600F800C7
:103250003200F800801F7800200020000C000900D8
:10326000B01F780024862000544688008818020089
:103270000000000084A0A900A00120000C000900AB
:103280004F1078004F0078003200F9003600F90046
:103290004200F90000400600851F7800861F780074
:1032A000871F78005516800005027800040CB200D4
:1032B00084468800C0002000CE08B4008002780058
:1032C000440A80008402980000012000CE08B40067
:1032D00080027800C0002000CE08B40010037800FF
:1032E000E0002000CE08B40000027800140078004E
:1032F000800A530020012000CE08B400800278002C
:10330000864680000604B2004633DE008746800011
:103310000708B2004738DE0000006B000080EA00BA
:103320000003780061006300804A780085468000D1
:103330000504B200C62ADE00864680000608B200F8
:103340004730DE000028E1000C003A00A000200019
:10335000CE08B4008002780010C0B300804A780024
:1033600040002000CE08B4008002780015027800EA
:1033700061005200800A78000B003700A000200096
:10338000CE08B4008002780020C0B300804A7800E4
:1033900040002000CE08B4008002780015027800BA
:1033A00061024200840A7800E0002000CE08B400E8
:1033B00080027800C0002000CE08B400900A780097
:1033C000CF0378004F037800CF027800000006009A
:1033D0004200F8003600F8003200F800801F780044
:1033E000200020000C000900B01F78006487200036
:1033F000744688004C1902000000000088A0A90053
:10340000A00120000C0009004F1078004F00780048
:103410003200F9003600F9004200F90000400600D1
:10342000851F7800861F7800871F7800551680005A
:1034300005027800040CB20054468800C000200049
:10344000C808B40080027800640A800084029800F2
:1034500000012000C808B40080027800C0002000ED
:10346000C808B40010037800E0002000C808B400C9
:103470000002780014007800800A53002001200028
:10348000C808B40080027800564680000604B200E6
:103490004633DE00574680000708B2004738DE009A
:1034A00000006B000080EA00000378006100630008
:1034B000804A7800554680000504B200C62ADE0026
:1034C000564680000608B2004730DE000028E100C2
:1034D0000C003200A0002000C808B4008002780070
:1034E00010C0B300804A780040002000C808B40033
:1034F000800278001502780061005200800A78008E
:103500000B003700A0002000C808B400800278003B
:1035100020C0B300804A780040002000C808B400F2
:10352000800278001502780061024200840A780067
:10353000E0002000C808B40080027800C00020002D
:10354000C808B400900A7800CF0378004F037800D1
:10355000CF027800000006004200F8003600F800B4
:103560003200F800801F7800200020000C000900C5
:10357000B01F78006487200044468800101A0200BB
:103580000000000088C0A900A00120000C00090074
:103590004F1078004F0078003200F9003600F90033
:1035A0004200F9000040060081E0A900040E20005E
:1035B0001402880081E0A80000000600851F780042
:1035C000000020008C08B40080027800E48820000D
:1035D000B41A7800B41A7800400020008C08B400B7
:1035E0008002780024892000B41A7800B41A780088
:1035F000800020008C08B4008002780064892000DC
:10360000B41A7800B41A7800C00020008C08B40006
:1036100080027800804AEB0000C0B300904298001E
:1036200000C0B300A042980000C0B300B0429800B0
:10363000000120008C08B40080027800804AEB0072
:1036400000C0B3009042980000C0B300A0429800B0
:1036500000C0B300B0429800400120008C08B400C4
:1036600080027800804AEB0000C0B30090429800CE
:1036700000C0B300A042980000C0B300B042980060
:10368000800120008C08B40080027800804AEB00A2
:1036900000C0B3009042980000C0B300A042980060
:1036A00000C0B300B0429800C00120008C08B400F4
:1036B00080027800804AEB0000C0B300904298007E
:1036C00000C0B300A042980000C0B300B042980010
:1036D000000220008C08B40080027800804AEB00D1
:1036E00000C0B3009042980000C0B300A042980010
:1036F00000C0B300B0429800400220008C08B40023
:1037000080027800804AEB0000C0B300904298002D
:1037100000C0B300A042980000C0B300B0429800BF
:10372000800220008C08B40080027800804AEB0000
:1037300000C0B3009042980000C0B300A0429800BF
:1037400000C0B300B0429800CF027800000006002D
:10375000851F7800400020008C08B40080027800AB
:10376000804AEB0000C0B300904298006000200047
:103770008C08B40080027800804AEB0000C0B300DF
:103780009042980000C0B300A042980000C0B3006F
:10379000B0429800A00020008C08B400800278009D
:1037A000804AEB00E00020008C08B4008002780022
:1037B000804AEB0000C0B30090429800C000200097
:1037C0008C08B40080027800804AEB0000C0B3008F
:1037D00090429800000120008C08B400800278001C
:1037E000804AEB0000C0B300904298002001200006
:1037F0008C08B40080027800804AEB0000002000B2
:103800008C08B40080027800804AEB0000C0B3004E
:103810009042980000C0B300A042980000C0B300DE
:10382000B0429800CF02780000000600851F7800A3
:103830002CA3EF000516800000FE2F00850260001B
:1038400005168800A4FF2F0044168800C442A80073
:10385000C482A800CC42A800CC62A800CF027800A5
:10386000000006008221EF00E4002000240C880004
:103870008821EF00E4002000540C88000A21EF00AA
:103880001221EF00743E2000740888000400280014
:103890009408880014082000140A88008420A900D5
:1038A0009420A80014082000340A880084A0A900ED
:1038B00094A0A80014082000540A880088A0A90039
:1038C00098A0A80014082000740A880088C0A900E5
:1038D00098C0A8000621EF001021EF000CA1EF0016
:1038E00004002800840888008780A9001821EF00C0
:1038F0002021EF0094862100E408880004032800BA
:10390000040988009780A8000000060081E0A90053
:103910004220EF0081E0A800000006000F7822009E
:10392000F07F220020A0B7000000000081E0A80086
:103930006004200042E7B7007005200042E7B700AE
:1039400042C7A900F013200080A6B70030F0230082
:1039500082A6B700405020008EA6B70060702000FD
:1039600090A6B700C0F02300A4A6B7003001200045
:10397000C0A6B70020012000C2A6B700003020007A
:10398000CCA6B7006004200042E7B7007005200015
:1039900042E7B70042C7A8004427EF000400280010
:1039A0000411880004402000141188002062A8003F
:1039B00024022000441188000028EF004427EF0073
:1039C0000828EF000028EF004427EF000028EF0050
:1039D0004427EF0010C0B3008AE8B7000028EF00CA
:1039E0002CA3EF00C48E20003440880004E921009D
:1039F00064478800EE28EF00D41A0200000000009F
:103A0000A4802000644488008E28EF00041A24005B
:103A1000844488009228EF009428EF009628EF0055
:103A20009828EF00DE1A02000000000064832000E6
:103A3000644488008E28EF00041224008444880027
:103A40009228EF009428EF009628EF009828EF00C6
:103A5000DE1A020000000000248620006444880072
:103A6000A81B020000000000648720006444880056
:103A7000A81B020000000000161C0200000000004D
:103A8000321C0200000000006228EF00842C240099
:103A9000244388007628EF00842C2400C443880047
:103AA000861C020000000000FFFF37000040FE00FF
:020000040001F9
:0807F800C7F900FF7F3F00FF7D
:00000001FF
;PIC24FJ48GA002
;CRC=A836  CREATED="14-Nov-17 23:22"
